{
  "abi": [
    {
      "inputs": [],
      "stateMutability": "nonpayable",
      "type": "constructor"
    },
    {
      "inputs": [
        {
          "internalType": "address",
          "name": "sender",
          "type": "address"
        },
        {
          "internalType": "uint256",
          "name": "tokenId",
          "type": "uint256"
        },
        {
          "internalType": "address",
          "name": "owner",
          "type": "address"
        }
      ],
      "name": "ERC721IncorrectOwner",
      "type": "error"
    },
    {
      "inputs": [
        {
          "internalType": "address",
          "name": "operator",
          "type": "address"
        },
        {
          "internalType": "uint256",
          "name": "tokenId",
          "type": "uint256"
        }
      ],
      "name": "ERC721InsufficientApproval",
      "type": "error"
    },
    {
      "inputs": [
        {
          "internalType": "address",
          "name": "approver",
          "type": "address"
        }
      ],
      "name": "ERC721InvalidApprover",
      "type": "error"
    },
    {
      "inputs": [
        {
          "internalType": "address",
          "name": "operator",
          "type": "address"
        }
      ],
      "name": "ERC721InvalidOperator",
      "type": "error"
    },
    {
      "inputs": [
        {
          "internalType": "address",
          "name": "owner",
          "type": "address"
        }
      ],
      "name": "ERC721InvalidOwner",
      "type": "error"
    },
    {
      "inputs": [
        {
          "internalType": "address",
          "name": "receiver",
          "type": "address"
        }
      ],
      "name": "ERC721InvalidReceiver",
      "type": "error"
    },
    {
      "inputs": [
        {
          "internalType": "address",
          "name": "sender",
          "type": "address"
        }
      ],
      "name": "ERC721InvalidSender",
      "type": "error"
    },
    {
      "inputs": [
        {
          "internalType": "uint256",
          "name": "tokenId",
          "type": "uint256"
        }
      ],
      "name": "ERC721NonexistentToken",
      "type": "error"
    },
    {
      "inputs": [],
      "name": "SupplyExceeded",
      "type": "error"
    },
    {
      "anonymous": false,
      "inputs": [
        {
          "indexed": true,
          "internalType": "address",
          "name": "owner",
          "type": "address"
        },
        {
          "indexed": true,
          "internalType": "address",
          "name": "approved",
          "type": "address"
        },
        {
          "indexed": true,
          "internalType": "uint256",
          "name": "tokenId",
          "type": "uint256"
        }
      ],
      "name": "Approval",
      "type": "event"
    },
    {
      "anonymous": false,
      "inputs": [
        {
          "indexed": true,
          "internalType": "address",
          "name": "owner",
          "type": "address"
        },
        {
          "indexed": true,
          "internalType": "address",
          "name": "operator",
          "type": "address"
        },
        {
          "indexed": false,
          "internalType": "bool",
          "name": "approved",
          "type": "bool"
        }
      ],
      "name": "ApprovalForAll",
      "type": "event"
    },
    {
      "anonymous": false,
      "inputs": [
        {
          "indexed": false,
          "internalType": "uint256",
          "name": "_fromTokenId",
          "type": "uint256"
        },
        {
          "indexed": false,
          "internalType": "uint256",
          "name": "_toTokenId",
          "type": "uint256"
        }
      ],
      "name": "BatchMetadataUpdate",
      "type": "event"
    },
    {
      "anonymous": false,
      "inputs": [
        {
          "indexed": false,
          "internalType": "uint256",
          "name": "_tokenId",
          "type": "uint256"
        }
      ],
      "name": "MetadataUpdate",
      "type": "event"
    },
    {
      "anonymous": false,
      "inputs": [
        {
          "indexed": true,
          "internalType": "address",
          "name": "account",
          "type": "address"
        },
        {
          "indexed": false,
          "internalType": "uint256",
          "name": "supply",
          "type": "uint256"
        }
      ],
      "name": "Minted",
      "type": "event"
    },
    {
      "anonymous": false,
      "inputs": [
        {
          "indexed": true,
          "internalType": "address",
          "name": "from",
          "type": "address"
        },
        {
          "indexed": true,
          "internalType": "address",
          "name": "to",
          "type": "address"
        },
        {
          "indexed": true,
          "internalType": "uint256",
          "name": "tokenId",
          "type": "uint256"
        }
      ],
      "name": "Transfer",
      "type": "event"
    },
    {
      "inputs": [],
      "name": "MAX_SUPPLY",
      "outputs": [
        {
          "internalType": "uint256",
          "name": "",
          "type": "uint256"
        }
      ],
      "stateMutability": "view",
      "type": "function"
    },
    {
      "inputs": [
        {
          "internalType": "address",
          "name": "to",
          "type": "address"
        },
        {
          "internalType": "uint256",
          "name": "tokenId",
          "type": "uint256"
        }
      ],
      "name": "approve",
      "outputs": [],
      "stateMutability": "nonpayable",
      "type": "function"
    },
    {
      "inputs": [
        {
          "internalType": "address",
          "name": "owner",
          "type": "address"
        }
      ],
      "name": "balanceOf",
      "outputs": [
        {
          "internalType": "uint256",
          "name": "",
          "type": "uint256"
        }
      ],
      "stateMutability": "view",
      "type": "function"
    },
    {
      "inputs": [
        {
          "internalType": "uint256",
          "name": "tokenId",
          "type": "uint256"
        }
      ],
      "name": "getApproved",
      "outputs": [
        {
          "internalType": "address",
          "name": "",
          "type": "address"
        }
      ],
      "stateMutability": "view",
      "type": "function"
    },
    {
      "inputs": [
        {
          "internalType": "address",
          "name": "owner",
          "type": "address"
        },
        {
          "internalType": "address",
          "name": "operator",
          "type": "address"
        }
      ],
      "name": "isApprovedForAll",
      "outputs": [
        {
          "internalType": "bool",
          "name": "",
          "type": "bool"
        }
      ],
      "stateMutability": "view",
      "type": "function"
    },
    {
      "inputs": [],
      "name": "name",
      "outputs": [
        {
          "internalType": "string",
          "name": "",
          "type": "string"
        }
      ],
      "stateMutability": "view",
      "type": "function"
    },
    {
      "inputs": [
        {
          "internalType": "uint256",
          "name": "tokenId",
          "type": "uint256"
        }
      ],
      "name": "ownerOf",
      "outputs": [
        {
          "internalType": "address",
          "name": "",
          "type": "address"
        }
      ],
      "stateMutability": "view",
      "type": "function"
    },
    {
      "inputs": [
        {
          "internalType": "string",
          "name": "uri",
          "type": "string"
        }
      ],
      "name": "safeMint",
      "outputs": [],
      "stateMutability": "nonpayable",
      "type": "function"
    },
    {
      "inputs": [
        {
          "internalType": "address",
          "name": "from",
          "type": "address"
        },
        {
          "internalType": "address",
          "name": "to",
          "type": "address"
        },
        {
          "internalType": "uint256",
          "name": "tokenId",
          "type": "uint256"
        }
      ],
      "name": "safeTransferFrom",
      "outputs": [],
      "stateMutability": "nonpayable",
      "type": "function"
    },
    {
      "inputs": [
        {
          "internalType": "address",
          "name": "from",
          "type": "address"
        },
        {
          "internalType": "address",
          "name": "to",
          "type": "address"
        },
        {
          "internalType": "uint256",
          "name": "tokenId",
          "type": "uint256"
        },
        {
          "internalType": "bytes",
          "name": "data",
          "type": "bytes"
        }
      ],
      "name": "safeTransferFrom",
      "outputs": [],
      "stateMutability": "nonpayable",
      "type": "function"
    },
    {
      "inputs": [
        {
          "internalType": "address",
          "name": "operator",
          "type": "address"
        },
        {
          "internalType": "bool",
          "name": "approved",
          "type": "bool"
        }
      ],
      "name": "setApprovalForAll",
      "outputs": [],
      "stateMutability": "nonpayable",
      "type": "function"
    },
    {
      "inputs": [
        {
          "internalType": "bytes4",
          "name": "interfaceId",
          "type": "bytes4"
        }
      ],
      "name": "supportsInterface",
      "outputs": [
        {
          "internalType": "bool",
          "name": "",
          "type": "bool"
        }
      ],
      "stateMutability": "view",
      "type": "function"
    },
    {
      "inputs": [],
      "name": "symbol",
      "outputs": [
        {
          "internalType": "string",
          "name": "",
          "type": "string"
        }
      ],
      "stateMutability": "view",
      "type": "function"
    },
    {
      "inputs": [
        {
          "internalType": "uint256",
          "name": "tokenId",
          "type": "uint256"
        }
      ],
      "name": "tokenURI",
      "outputs": [
        {
          "internalType": "string",
          "name": "",
          "type": "string"
        }
      ],
      "stateMutability": "view",
      "type": "function"
    },
    {
      "inputs": [
        {
          "internalType": "address",
          "name": "from",
          "type": "address"
        },
        {
          "internalType": "address",
          "name": "to",
          "type": "address"
        },
        {
          "internalType": "uint256",
          "name": "tokenId",
          "type": "uint256"
        }
      ],
      "name": "transferFrom",
      "outputs": [],
      "stateMutability": "nonpayable",
      "type": "function"
    }
  ],
  "bytecode": {
    "object": "0x60806040523480156200001157600080fd5b506040518060400160405280600e81526020016d2337b7ba3130b636283630bcb2b960911b8152506040518060400160405280600381526020016246545360e81b815250816000908162000066919062000123565b50600162000075828262000123565b505050620001ef565b634e487b7160e01b600052604160045260246000fd5b600181811c90821680620000a957607f821691505b602082108103620000ca57634e487b7160e01b600052602260045260246000fd5b50919050565b601f8211156200011e57600081815260208120601f850160051c81016020861015620000f95750805b601f850160051c820191505b818110156200011a5782815560010162000105565b5050505b505050565b81516001600160401b038111156200013f576200013f6200007e565b620001578162000150845462000094565b84620000d0565b602080601f8311600181146200018f5760008415620001765750858301515b600019600386901b1c1916600185901b1785556200011a565b600085815260208120601f198616915b82811015620001c0578886015182559484019460019091019084016200019f565b5085821015620001df5787850151600019600388901b60f8161c191681555b5050505050600190811b01905550565b61135c80620001ff6000396000f3fe608060405234801561001057600080fd5b50600436106100f55760003560e01c80636352211e11610097578063a22cb46511610066578063a22cb465146101f5578063b88d4fde14610208578063c87b56dd1461021b578063e985e9c51461022e57600080fd5b80636352211e146101b4578063695850fb146101c757806370a08231146101da57806395d89b41146101ed57600080fd5b8063095ea7b3116100d3578063095ea7b31461016257806323b872dd1461017757806332cb6b0c1461018a57806342842e0e146101a157600080fd5b806301ffc9a7146100fa57806306fdde0314610122578063081812fc14610137575b600080fd5b61010d610108366004610e38565b610241565b60405190151581526020015b60405180910390f35b61012a610252565b6040516101199190610ea5565b61014a610145366004610eb8565b6102e4565b6040516001600160a01b039091168152602001610119565b610175610170366004610eed565b61030d565b005b610175610185366004610f17565b61031c565b610193610bb881565b604051908152602001610119565b6101756101af366004610f17565b6103ac565b61014a6101c2366004610eb8565b6103cc565b6101756101d5366004610fdf565b6103d7565b6101936101e8366004611028565b61044d565b61012a610495565b610175610203366004611043565b6104a4565b61017561021636600461107f565b6104af565b61012a610229366004610eb8565b6104c6565b61010d61023c3660046110fb565b6104d1565b600061024c826104ff565b92915050565b6060600080546102619061112e565b80601f016020809104026020016040519081016040528092919081815260200182805461028d9061112e565b80156102da5780601f106102af576101008083540402835291602001916102da565b820191906000526020600020905b8154815290600101906020018083116102bd57829003601f168201915b5050505050905090565b60006102ef82610524565b506000828152600460205260409020546001600160a01b031661024c565b61031882823361055d565b5050565b6001600160a01b03821661034b57604051633250574960e11b8152600060048201526024015b60405180910390fd5b600061035883833361056a565b9050836001600160a01b0316816001600160a01b0316146103a6576040516364283d7b60e01b81526001600160a01b0380861660048301526024820184905282166044820152606401610342565b50505050565b6103c7838383604051806020016040528060008152506104af565b505050565b600061024c82610524565b60078054339160009190826103eb83611168565b9190505590506103fb8282610663565b610405818461067d565b816001600160a01b03167f30385c845b448a36257a6a1716e6ad2e1bc2cbe333cde1e69fe849ad6511adfe8260405161044091815260200190565b60405180910390a2505050565b60006001600160a01b038216610479576040516322718ad960e21b815260006004820152602401610342565b506001600160a01b031660009081526003602052604090205490565b6060600180546102619061112e565b6103183383836106cd565b6104ba84848461031c565b6103a68484848461076c565b606061024c82610895565b6001600160a01b03918216600090815260056020908152604080832093909416825291909152205460ff1690565b60006001600160e01b03198216632483248360e11b148061024c575061024c826109a6565b6000818152600260205260408120546001600160a01b03168061024c57604051637e27328960e01b815260048101849052602401610342565b6103c783838360016109f6565b6000828152600260205260408120546001600160a01b039081169083161561059757610597818486610afc565b6001600160a01b038116156105d5576105b46000856000806109f6565b6001600160a01b038116600090815260036020526040902080546000190190555b6001600160a01b03851615610604576001600160a01b0385166000908152600360205260409020805460010190555b60008481526002602052604080822080546001600160a01b0319166001600160a01b0389811691821790925591518793918516917fddf252ad1be2c89b69c2b068fc378daa952ba7f163c4a11628f55a4df523b3ef91a4949350505050565b610318828260405180602001604052806000815250610b60565b600082815260066020526040902061069582826111dd565b506040518281527ff8e1a15aba9398e019f0b49df1a4fde98ee17ae345cb5f6b5e2c27f5033e8ce79060200160405180910390a15050565b6001600160a01b0382166106ff57604051630b61174360e31b81526001600160a01b0383166004820152602401610342565b6001600160a01b03838116600081815260056020908152604080832094871680845294825291829020805460ff191686151590811790915591519182527f17307eab39ab6107e8899845ad3d59bd9653f200f220920489ca2b5937696c31910160405180910390a3505050565b6001600160a01b0383163b156103a657604051630a85bd0160e11b81526001600160a01b0384169063150b7a02906107ae90339088908790879060040161129d565b6020604051808303816000875af19250505080156107e9575060408051601f3d908101601f191682019092526107e6918101906112da565b60015b610852573d808015610817576040519150601f19603f3d011682016040523d82523d6000602084013e61081c565b606091505b50805160000361084a57604051633250574960e11b81526001600160a01b0385166004820152602401610342565b805181602001fd5b6001600160e01b03198116630a85bd0160e11b1461088e57604051633250574960e11b81526001600160a01b0385166004820152602401610342565b5050505050565b60606108a082610524565b50600082815260066020526040812080546108ba9061112e565b80601f01602080910402602001604051908101604052809291908181526020018280546108e69061112e565b80156109335780601f1061090857610100808354040283529160200191610933565b820191906000526020600020905b81548152906001019060200180831161091657829003601f168201915b50505050509050600061095160408051602081019091526000815290565b90508051600003610963575092915050565b81511561099557808260405160200161097d9291906112f7565b60405160208183030381529060405292505050919050565b61099e84610b77565b949350505050565b60006001600160e01b031982166380ac58cd60e01b14806109d757506001600160e01b03198216635b5e139f60e01b145b8061024c57506301ffc9a760e01b6001600160e01b031983161461024c565b8080610a0a57506001600160a01b03821615155b15610acc576000610a1a84610524565b90506001600160a01b03831615801590610a465750826001600160a01b0316816001600160a01b031614155b8015610a595750610a5781846104d1565b155b15610a825760405163a9fbf51f60e01b81526001600160a01b0384166004820152602401610342565b8115610aca5783856001600160a01b0316826001600160a01b03167f8c5be1e5ebec7d5bd14f71427d1e84f3dd0314c0f7b2291e5b200ac8c7c3b92560405160405180910390a45b505b5050600090815260046020526040902080546001600160a01b0319166001600160a01b0392909216919091179055565b610b07838383610bec565b6103c7576001600160a01b038316610b3557604051637e27328960e01b815260048101829052602401610342565b60405163177e802f60e01b81526001600160a01b038316600482015260248101829052604401610342565b610b6a8383610c4f565b6103c7600084848461076c565b6060610b8282610524565b506000610b9a60408051602081019091526000815290565b90506000815111610bba5760405180602001604052806000815250610be5565b80610bc484610cb4565b604051602001610bd59291906112f7565b6040516020818303038152906040525b9392505050565b60006001600160a01b0383161580159061099e5750826001600160a01b0316846001600160a01b03161480610c265750610c2684846104d1565b8061099e5750506000908152600460205260409020546001600160a01b03908116911614919050565b6001600160a01b038216610c7957604051633250574960e11b815260006004820152602401610342565b6000610c878383600061056a565b90506001600160a01b038116156103c7576040516339e3563760e11b815260006004820152602401610342565b60606000610cc183610d47565b600101905060008167ffffffffffffffff811115610ce157610ce1610f53565b6040519080825280601f01601f191660200182016040528015610d0b576020820181803683370190505b5090508181016020015b600019016f181899199a1a9b1b9c1cb0b131b232b360811b600a86061a8153600a8504945084610d1557509392505050565b60008072184f03e93ff9f4daa797ed6e38ed64bf6a1f0160401b8310610d865772184f03e93ff9f4daa797ed6e38ed64bf6a1f0160401b830492506040015b6d04ee2d6d415b85acef81000000008310610db2576d04ee2d6d415b85acef8100000000830492506020015b662386f26fc100008310610dd057662386f26fc10000830492506010015b6305f5e1008310610de8576305f5e100830492506008015b6127108310610dfc57612710830492506004015b60648310610e0e576064830492506002015b600a831061024c5760010192915050565b6001600160e01b031981168114610e3557600080fd5b50565b600060208284031215610e4a57600080fd5b8135610be581610e1f565b60005b83811015610e70578181015183820152602001610e58565b50506000910152565b60008151808452610e91816020860160208601610e55565b601f01601f19169290920160200192915050565b602081526000610be56020830184610e79565b600060208284031215610eca57600080fd5b5035919050565b80356001600160a01b0381168114610ee857600080fd5b919050565b60008060408385031215610f0057600080fd5b610f0983610ed1565b946020939093013593505050565b600080600060608486031215610f2c57600080fd5b610f3584610ed1565b9250610f4360208501610ed1565b9150604084013590509250925092565b634e487b7160e01b600052604160045260246000fd5b600067ffffffffffffffff80841115610f8457610f84610f53565b604051601f8501601f19908116603f01168101908282118183101715610fac57610fac610f53565b81604052809350858152868686011115610fc557600080fd5b858560208301376000602087830101525050509392505050565b600060208284031215610ff157600080fd5b813567ffffffffffffffff81111561100857600080fd5b8201601f8101841361101957600080fd5b61099e84823560208401610f69565b60006020828403121561103a57600080fd5b610be582610ed1565b6000806040838503121561105657600080fd5b61105f83610ed1565b91506020830135801515811461107457600080fd5b809150509250929050565b6000806000806080858703121561109557600080fd5b61109e85610ed1565b93506110ac60208601610ed1565b925060408501359150606085013567ffffffffffffffff8111156110cf57600080fd5b8501601f810187136110e057600080fd5b6110ef87823560208401610f69565b91505092959194509250565b6000806040838503121561110e57600080fd5b61111783610ed1565b915061112560208401610ed1565b90509250929050565b600181811c9082168061114257607f821691505b60208210810361116257634e487b7160e01b600052602260045260246000fd5b50919050565b60006001820161118857634e487b7160e01b600052601160045260246000fd5b5060010190565b601f8211156103c757600081815260208120601f850160051c810160208610156111b65750805b601f850160051c820191505b818110156111d5578281556001016111c2565b505050505050565b815167ffffffffffffffff8111156111f7576111f7610f53565b61120b81611205845461112e565b8461118f565b602080601f83116001811461124057600084156112285750858301515b600019600386901b1c1916600185901b1785556111d5565b600085815260208120601f198616915b8281101561126f57888601518255948401946001909101908401611250565b508582101561128d5787850151600019600388901b60f8161c191681555b5050505050600190811b01905550565b6001600160a01b03858116825284166020820152604081018390526080606082018190526000906112d090830184610e79565b9695505050505050565b6000602082840312156112ec57600080fd5b8151610be581610e1f565b60008351611309818460208801610e55565b83519083019061131d818360208801610e55565b0194935050505056fea26469706673582212208e60655857f83acf4157b2e7d2e31ff4c84aadee58705a6138fe5e0e76b047ea64736f6c63430008150033",
    "linkReferences": {}
  },
  "methodIdentifiers": {
    "MAX_SUPPLY()": "32cb6b0c",
    "approve(address,uint256)": "095ea7b3",
    "balanceOf(address)": "70a08231",
    "getApproved(uint256)": "081812fc",
    "isApprovedForAll(address,address)": "e985e9c5",
    "name()": "06fdde03",
    "ownerOf(uint256)": "6352211e",
    "safeMint(string)": "695850fb",
    "safeTransferFrom(address,address,uint256)": "42842e0e",
    "safeTransferFrom(address,address,uint256,bytes)": "b88d4fde",
    "setApprovalForAll(address,bool)": "a22cb465",
    "supportsInterface(bytes4)": "01ffc9a7",
    "symbol()": "95d89b41",
    "tokenURI(uint256)": "c87b56dd",
    "transferFrom(address,address,uint256)": "23b872dd"
  },
  "id": 33
}