{
  "abi": [
    {
      "inputs": [],
      "stateMutability": "nonpayable",
      "type": "constructor"
    },
    {
      "inputs": [],
      "name": "UnknownWinner",
      "type": "error"
    },
    {
      "anonymous": false,
      "inputs": [
        {
          "indexed": false,
          "internalType": "address",
          "name": "player1",
          "type": "address"
        },
        {
          "indexed": false,
          "internalType": "address",
          "name": "player2",
          "type": "address"
        },
        {
          "components": [
            {
              "internalType": "address",
              "name": "player1",
              "type": "address"
            },
            {
              "internalType": "address",
              "name": "player2",
              "type": "address"
            },
            {
              "internalType": "uint256",
              "name": "wager",
              "type": "uint256"
            },
            {
              "internalType": "enum MatchMaking.STATUS",
              "name": "status",
              "type": "uint8"
            },
            {
              "internalType": "uint256",
              "name": "matchWith",
              "type": "uint256"
            },
            {
              "internalType": "address",
              "name": "winner",
              "type": "address"
            },
            {
              "internalType": "uint256",
              "name": "winningWager",
              "type": "uint256"
            },
            {
              "internalType": "bool",
              "name": "is_draw",
              "type": "bool"
            }
          ],
          "indexed": false,
          "internalType": "struct MatchMaking.MatchDetail",
          "name": "matchDetail1",
          "type": "tuple"
        },
        {
          "components": [
            {
              "internalType": "address",
              "name": "player1",
              "type": "address"
            },
            {
              "internalType": "address",
              "name": "player2",
              "type": "address"
            },
            {
              "internalType": "uint256",
              "name": "wager",
              "type": "uint256"
            },
            {
              "internalType": "enum MatchMaking.STATUS",
              "name": "status",
              "type": "uint8"
            },
            {
              "internalType": "uint256",
              "name": "matchWith",
              "type": "uint256"
            },
            {
              "internalType": "address",
              "name": "winner",
              "type": "address"
            },
            {
              "internalType": "uint256",
              "name": "winningWager",
              "type": "uint256"
            },
            {
              "internalType": "bool",
              "name": "is_draw",
              "type": "bool"
            }
          ],
          "indexed": false,
          "internalType": "struct MatchMaking.MatchDetail",
          "name": "matchDetail2",
          "type": "tuple"
        }
      ],
      "name": "GameMatched",
      "type": "event"
    },
    {
      "anonymous": false,
      "inputs": [
        {
          "indexed": false,
          "internalType": "uint256",
          "name": "matchId",
          "type": "uint256"
        },
        {
          "indexed": false,
          "internalType": "address",
          "name": "player",
          "type": "address"
        },
        {
          "components": [
            {
              "internalType": "address",
              "name": "player1",
              "type": "address"
            },
            {
              "internalType": "address",
              "name": "player2",
              "type": "address"
            },
            {
              "internalType": "uint256",
              "name": "wager",
              "type": "uint256"
            },
            {
              "internalType": "enum MatchMaking.STATUS",
              "name": "status",
              "type": "uint8"
            },
            {
              "internalType": "uint256",
              "name": "matchWith",
              "type": "uint256"
            },
            {
              "internalType": "address",
              "name": "winner",
              "type": "address"
            },
            {
              "internalType": "uint256",
              "name": "winningWager",
              "type": "uint256"
            },
            {
              "internalType": "bool",
              "name": "is_draw",
              "type": "bool"
            }
          ],
          "indexed": false,
          "internalType": "struct MatchMaking.MatchDetail",
          "name": "matchDetail",
          "type": "tuple"
        }
      ],
      "name": "MatchCreated",
      "type": "event"
    },
    {
      "anonymous": false,
      "inputs": [
        {
          "indexed": false,
          "internalType": "uint256",
          "name": "id",
          "type": "uint256"
        },
        {
          "components": [
            {
              "internalType": "address",
              "name": "player1",
              "type": "address"
            },
            {
              "internalType": "address",
              "name": "player2",
              "type": "address"
            },
            {
              "internalType": "uint256",
              "name": "wager",
              "type": "uint256"
            },
            {
              "internalType": "enum MatchMaking.STATUS",
              "name": "status",
              "type": "uint8"
            },
            {
              "internalType": "uint256",
              "name": "matchWith",
              "type": "uint256"
            },
            {
              "internalType": "address",
              "name": "winner",
              "type": "address"
            },
            {
              "internalType": "uint256",
              "name": "winningWager",
              "type": "uint256"
            },
            {
              "internalType": "bool",
              "name": "is_draw",
              "type": "bool"
            }
          ],
          "indexed": false,
          "internalType": "struct MatchMaking.MatchDetail",
          "name": "matchDetail",
          "type": "tuple"
        },
        {
          "components": [
            {
              "internalType": "address",
              "name": "player1",
              "type": "address"
            },
            {
              "internalType": "uint256",
              "name": "amount1",
              "type": "uint256"
            },
            {
              "internalType": "address",
              "name": "player2",
              "type": "address"
            },
            {
              "internalType": "uint256",
              "name": "amount2",
              "type": "uint256"
            }
          ],
          "indexed": false,
          "internalType": "struct MatchMaking.WagerResult",
          "name": "wagerResult",
          "type": "tuple"
        }
      ],
      "name": "WinningResult",
      "type": "event"
    },
    {
      "anonymous": false,
      "inputs": [
        {
          "indexed": false,
          "internalType": "uint256",
          "name": "id",
          "type": "uint256"
        },
        {
          "indexed": false,
          "internalType": "address",
          "name": "winner",
          "type": "address"
        },
        {
          "indexed": false,
          "internalType": "uint256",
          "name": "score1",
          "type": "uint256"
        },
        {
          "indexed": false,
          "internalType": "uint256",
          "name": "score2",
          "type": "uint256"
        }
      ],
      "name": "WinningScore",
      "type": "event"
    },
    {
      "anonymous": false,
      "inputs": [
        {
          "indexed": false,
          "internalType": "address",
          "name": "to",
          "type": "address"
        },
        {
          "indexed": false,
          "internalType": "uint256",
          "name": "amount",
          "type": "uint256"
        }
      ],
      "name": "Withdraw",
      "type": "event"
    },
    {
      "inputs": [
        {
          "internalType": "uint256",
          "name": "_id",
          "type": "uint256"
        },
        {
          "internalType": "uint256",
          "name": "_winner",
          "type": "uint256"
        },
        {
          "internalType": "uint256",
          "name": "_score1",
          "type": "uint256"
        },
        {
          "internalType": "uint256",
          "name": "_score2",
          "type": "uint256"
        }
      ],
      "name": "finishMatch",
      "outputs": [],
      "stateMutability": "nonpayable",
      "type": "function"
    },
    {
      "inputs": [
        {
          "internalType": "uint256",
          "name": "_id",
          "type": "uint256"
        }
      ],
      "name": "getMatchDetail",
      "outputs": [
        {
          "components": [
            {
              "internalType": "address",
              "name": "player1",
              "type": "address"
            },
            {
              "internalType": "address",
              "name": "player2",
              "type": "address"
            },
            {
              "internalType": "uint256",
              "name": "wager",
              "type": "uint256"
            },
            {
              "internalType": "enum MatchMaking.STATUS",
              "name": "status",
              "type": "uint8"
            },
            {
              "internalType": "uint256",
              "name": "matchWith",
              "type": "uint256"
            },
            {
              "internalType": "address",
              "name": "winner",
              "type": "address"
            },
            {
              "internalType": "uint256",
              "name": "winningWager",
              "type": "uint256"
            },
            {
              "internalType": "bool",
              "name": "is_draw",
              "type": "bool"
            }
          ],
          "internalType": "struct MatchMaking.MatchDetail",
          "name": "",
          "type": "tuple"
        }
      ],
      "stateMutability": "view",
      "type": "function"
    },
    {
      "inputs": [
        {
          "internalType": "address",
          "name": "_player",
          "type": "address"
        }
      ],
      "name": "getMatches",
      "outputs": [
        {
          "internalType": "uint256[]",
          "name": "",
          "type": "uint256[]"
        }
      ],
      "stateMutability": "view",
      "type": "function"
    },
    {
      "inputs": [
        {
          "internalType": "uint256",
          "name": "",
          "type": "uint256"
        }
      ],
      "name": "matchDetail",
      "outputs": [
        {
          "internalType": "address",
          "name": "player1",
          "type": "address"
        },
        {
          "internalType": "address",
          "name": "player2",
          "type": "address"
        },
        {
          "internalType": "uint256",
          "name": "wager",
          "type": "uint256"
        },
        {
          "internalType": "enum MatchMaking.STATUS",
          "name": "status",
          "type": "uint8"
        },
        {
          "internalType": "uint256",
          "name": "matchWith",
          "type": "uint256"
        },
        {
          "internalType": "address",
          "name": "winner",
          "type": "address"
        },
        {
          "internalType": "uint256",
          "name": "winningWager",
          "type": "uint256"
        },
        {
          "internalType": "bool",
          "name": "is_draw",
          "type": "bool"
        }
      ],
      "stateMutability": "view",
      "type": "function"
    },
    {
      "inputs": [],
      "name": "matchId",
      "outputs": [
        {
          "internalType": "uint256",
          "name": "",
          "type": "uint256"
        }
      ],
      "stateMutability": "view",
      "type": "function"
    },
    {
      "inputs": [
        {
          "internalType": "address",
          "name": "",
          "type": "address"
        },
        {
          "internalType": "uint256",
          "name": "",
          "type": "uint256"
        }
      ],
      "name": "myMatches",
      "outputs": [
        {
          "internalType": "uint256",
          "name": "",
          "type": "uint256"
        }
      ],
      "stateMutability": "view",
      "type": "function"
    },
    {
      "inputs": [],
      "name": "quickMatch",
      "outputs": [],
      "stateMutability": "payable",
      "type": "function"
    },
    {
      "inputs": [
        {
          "internalType": "uint256",
          "name": "",
          "type": "uint256"
        }
      ],
      "name": "wagerPayoffRate",
      "outputs": [
        {
          "internalType": "uint256",
          "name": "",
          "type": "uint256"
        }
      ],
      "stateMutability": "view",
      "type": "function"
    },
    {
      "inputs": [
        {
          "internalType": "uint256",
          "name": "",
          "type": "uint256"
        },
        {
          "internalType": "uint256",
          "name": "",
          "type": "uint256"
        }
      ],
      "name": "wagerResult",
      "outputs": [
        {
          "internalType": "address",
          "name": "player1",
          "type": "address"
        },
        {
          "internalType": "uint256",
          "name": "amount1",
          "type": "uint256"
        },
        {
          "internalType": "address",
          "name": "player2",
          "type": "address"
        },
        {
          "internalType": "uint256",
          "name": "amount2",
          "type": "uint256"
        }
      ],
      "stateMutability": "view",
      "type": "function"
    },
    {
      "inputs": [],
      "name": "waitingMatchId",
      "outputs": [
        {
          "internalType": "uint256",
          "name": "",
          "type": "uint256"
        }
      ],
      "stateMutability": "view",
      "type": "function"
    },
    {
      "inputs": [
        {
          "internalType": "address",
          "name": "_to",
          "type": "address"
        }
      ],
      "name": "withdraw",
      "outputs": [],
      "stateMutability": "nonpayable",
      "type": "function"
    }
  ],
  "bytecode": {
    "object": "0x608060405234801561001057600080fd5b506001600055601e6003556037600455604b600555605a60065560646007556113048061003e6000396000f3fe60806040526004361061009c5760003560e01c80636b9e128d116100645780636b9e128d146102185780637779577814610245578063885dd40c1461027257806399892e4714610292578063ccf5a82c146102a8578063dcce262b146102c857600080fd5b8063217b6c0d146100a15780634878a3d31461013057806351cff8d9146101c05780635471b520146101e257806363baf076146101ea575b600080fd5b3480156100ad57600080fd5b506101136100bc366004610ec0565b600860205260009081526040902080546001820154600283015460038401546004850154600586015460068701546007909701546001600160a01b039687169795871696949560ff94851695939493909216921688565b604051610127989796959493929190610f11565b60405180910390f35b34801561013c57600080fd5b5061018b61014b366004610f6a565b600a60209081526000928352604080842090915290825290208054600182015460028301546003909301546001600160a01b039283169391929091169084565b60405161012794939291906001600160a01b039485168152602081019390935292166040820152606081019190915260800190565b3480156101cc57600080fd5b506101e06101db366004610fa8565b6102de565b005b6101e0610432565b3480156101f657600080fd5b5061020a610205366004610ec0565b610613565b604051908152602001610127565b34801561022457600080fd5b50610238610233366004610ec0565b61062a565b6040516101279190610fca565b34801561025157600080fd5b50610265610260366004610fa8565b610719565b604051610127919061103c565b34801561027e57600080fd5b5061020a61028d366004611080565b610785565b34801561029e57600080fd5b5061020a60005481565b3480156102b457600080fd5b506101e06102c33660046110aa565b6107b6565b3480156102d457600080fd5b5061020a60015481565b6001600160a01b0381166000908152600b6020526040812054908190036103455760405162461bcd60e51b81526020600482015260166024820152754e6f2062616c616e636520746f20776974686472617760501b60448201526064015b60405180910390fd5b6001600160a01b0382166000818152600b60205260408082208290555190919083908381818185875af1925050503d806000811461039f576040519150601f19603f3d011682016040523d82523d6000602084013e6103a4565b606091505b50509050806103ea5760405162461bcd60e51b81526020600482015260126024820152714661696c656420746f20776974686472617760701b604482015260640161033c565b604080516001600160a01b0385168152602081018490527f884edad9ce6fa2440d8a54cc123490eb96d2768479d49ff9c7366125a942436491015b60405180910390a1505050565b3460000361046d5760405162461bcd60e51b81526020600482015260086024820152672737903bb0b3b2b960c11b604482015260640161033c565b60408051610100810182523381526000602080830182815234848601908152606085018481526080860185905260a0860185905260c0860185905260e0860185905284548552600890935294909220835181546001600160a01b03199081166001600160a01b0392831617835593516001808401805490961691909216179093559351600285015551600380850180549495949293909260ff191691849081111561051a5761051a610ed9565b02179055506080820151600482015560a08201516005820180546001600160a01b0319166001600160a01b0390921691909117905560c0820151600682015560e0909101516007909101805460ff19169115159190911790556001541561058b57610586600054610d68565b610592565b6000546001555b3360008181526009602090815260408083208354815460018101835591855283852090910155825480845260089092529182902091517ffd0ffbd680cc7847034784f3db4e34d1ee3e26f77f7905503cb0d6201037233b936105f5939091611169565b60405180910390a160008054908061060c836111ab565b9190505550565b6002816006811061062357600080fd5b0154905081565b6040805161010080820183526000808352602080840182905283850182905260608085018390526080850183905260a0850183905260c0850183905260e0850183905286835260088252918590208551938401865280546001600160a01b03908116855260018201541691840191909152600281015494830194909452600380850154939492939184019160ff16908111156106c8576106c8610ed9565b60038111156106d9576106d9610ed9565b81526004820154602082015260058201546001600160a01b031660408201526006820154606082015260079091015460ff16151560809091015292915050565b6001600160a01b03811660009081526009602090815260409182902080548351818402810184019094528084526060939283018282801561077957602002820191906000526020600020905b815481526020019060010190808311610765575b50505050509050919050565b600960205281600052604060002081815481106107a157600080fd5b90600052602060002001600091509150505481565b600084815260086020526040808220600481015483529120600260038084015460ff16908111156107e9576107e9610ed9565b146107f357600080fd5b60008560010361080e575081546001600160a01b0316610843565b8560020361082a575060018201546001600160a01b0316610843565b6040516309cdf8ab60e31b815260040160405180910390fd5b6005830180546001600160a01b0319166001600160a01b0383161790556003808401805460ff191660018302179055506005820180546001600160a01b0319166001600160a01b0383161790556003808301805460ff19166001830217905550600080858711156108bf576108b886886111c4565b90506108cc565b6108c987876111c4565b90505b600581106108dd57600591506108e1565b8091505b600080600284600681106108f7576108f76111dd565b015493508960010361099d576064806064868a6002015461091891906111f3565b61092291906111f3565b61092c919061120a565b610936919061120a565b8760020154610945919061122c565b91506064806064868a6002015461095c91906111f3565b61096691906111f3565b610970919061120a565b61097a919061120a565b876002015461098991906111c4565b600680890184905587018390559050610a33565b6064806064868a600201546109b291906111f3565b6109bc91906111f3565b6109c6919061120a565b6109d0919061120a565b87600201546109df91906111c4565b91506064806064868a600201546109f691906111f3565b610a0091906111f3565b610a0a919061120a565b610a14919061120a565b8760020154610a23919061122c565b6006808901829055870181905590505b60405180608001604052808860000160009054906101000a90046001600160a01b03166001600160a01b031681526020018381526020018860010160009054906101000a90046001600160a01b03166001600160a01b0316815260200182815250600a60008d815260200190815260200160002060008960040154815260200190815260200160002060008201518160000160006101000a8154816001600160a01b0302191690836001600160a01b031602179055506020820151816001015560408201518160020160006101000a8154816001600160a01b0302191690836001600160a01b031602179055506060820151816003015590505060405180608001604052808860000160009054906101000a90046001600160a01b03166001600160a01b031681526020018381526020018860010160009054906101000a90046001600160a01b03166001600160a01b0316815260200182815250600a60008960040154815260200190815260200160002060008d815260200190815260200160002060008201518160000160006101000a8154816001600160a01b0302191690836001600160a01b031602179055506020820151816001015560408201518160020160006101000a8154816001600160a01b0302191690836001600160a01b031602179055506060820151816003015590505082600003610c4f5760078781018054600160ff19918216811790925591880180549092161790555b86546001600160a01b03166000908152600b602052604081208054849290610c7890849061122c565b909155505060018701546001600160a01b03166000908152600b602052604081208054839290610ca990849061122c565b909155505060008b8152600a6020908152604080832060048b015484529091529081902090517f822a933da64db0b4b35a6299f1b2fed389361fbe0e6a7408d2cd029f68f0538a91610cfe918e918b9161123f565b60405180910390a16005870154604080518d81526001600160a01b03909216602083015281018a9052606081018990527f0d6f85789e29e914f6838ff7f4d8bf449af76057ce18924092aef4b2cb15f8a89060800160405180910390a15050505050505050505050565b60015460009081526008602052604080822083835291206002808201549083015414610dc85760405162461bcd60e51b815260206004820152600f60248201526e2234b33332b932b73a103bb0b3b2b960891b604482015260640161033c565b805482546001600160a01b03918216911603610e1f5760405162461bcd60e51b815260206004820152601660248201527521b0b73737ba1036b0ba31b4103bb4ba341039b2b63360511b604482015260640161033c565b8054600183810180546001600160a01b03199081166001600160a01b0394851617825560038087018054600260ff1991821681179092556004808a018b90558954878a0180549096169089161790945591870180549092161790558254908501556000909155835490546040517f47f8bead79e6eef5d7ff5aca6b2a5492e03191a2d1496a38f6119890397465b69361042593811692169086908690611291565b600060208284031215610ed257600080fd5b5035919050565b634e487b7160e01b600052602160045260246000fd5b60048110610f0d57634e487b7160e01b600052602160045260246000fd5b9052565b6001600160a01b038981168252888116602083015260408201889052610100820190610f406060840189610eef565b86608084015280861660a0840152508360c083015282151560e08301529998505050505050505050565b60008060408385031215610f7d57600080fd5b50508035926020909101359150565b80356001600160a01b0381168114610fa357600080fd5b919050565b600060208284031215610fba57600080fd5b610fc382610f8c565b9392505050565b81516001600160a01b039081168252602080840151821690830152604080840151908301526060808401516101008401929161100890850182610eef565b50608084015160808401528060a08501511660a08401525060c083015160c083015260e0830151151560e083015292915050565b6020808252825182820181905260009190848201906040850190845b8181101561107457835183529284019291840191600101611058565b50909695505050505050565b6000806040838503121561109357600080fd5b61109c83610f8c565b946020939093013593505050565b600080600080608085870312156110c057600080fd5b5050823594602084013594506040840135936060013592509050565b6110fe826110f183546001600160a01b031690565b6001600160a01b03169052565b60018101546001600160a01b0316602083015260028101546040830152600381015460ff166111306060840182610eef565b506004810154608083015260058101546001600160a01b031660a0830152600681015460c08301526007015460ff16151560e090910152565b8381526001600160a01b0383166020820152610140810161118d60408301846110dc565b949350505050565b634e487b7160e01b600052601160045260246000fd5b6000600182016111bd576111bd611195565b5060010190565b818103818111156111d7576111d7611195565b92915050565b634e487b7160e01b600052603260045260246000fd5b80820281158282048414176111d7576111d7611195565b60008261122757634e487b7160e01b600052601260045260246000fd5b500490565b808201808211156111d7576111d7611195565b8381526101a0810161125460208301856110dc565b82546001600160a01b0390811661012084015260018401546101408401526002840154166101608301526003909201546101809091015292915050565b6001600160a01b0385811682528416602082015261024081016112b760408301856110dc565b6112c56101408301846110dc565b9594505050505056fea264697066735822122031ee4fb83ccccb99292ec1d9577211616c21586736539b7a969d0e4b4d21fff264736f6c63430008150033",
    "linkReferences": {}
  },
  "methodIdentifiers": {
    "finishMatch(uint256,uint256,uint256,uint256)": "ccf5a82c",
    "getMatchDetail(uint256)": "6b9e128d",
    "getMatches(address)": "77795778",
    "matchDetail(uint256)": "217b6c0d",
    "matchId()": "99892e47",
    "myMatches(address,uint256)": "885dd40c",
    "quickMatch()": "5471b520",
    "wagerPayoffRate(uint256)": "63baf076",
    "wagerResult(uint256,uint256)": "4878a3d3",
    "waitingMatchId()": "dcce262b",
    "withdraw(address)": "51cff8d9"
  },
  "id": 20
}